:020000040000FA
:1000000003018501850183160030850085150515DE
:100010009515151583128E180F288E140E140E18B0
:1000200013280E148514392013288D207420922053
:10003000241A8D208A209220A41A8D208A209220B2
:10004000241B8D208A209220A41B8D208A209220A0
:100050002508A6000130A2000310A60D03188D206C
:100060008420842092200310A20D031838282C2805
:100070000800050885193D200800A201A501A3017B
:10008000A4016F207120472050205E20080000301E
:10009000A3008519231471208519A3147120080069
:1000A0000030A200221622088519A4040310A20D14
:1000B00003185C2871205328712008000030A2002A
:1000C000A500221422088519A5040310A20D031807
:1000D0006B287120622871200519152008007420F2
:1000E00008007420742008000A30A100FA30A00033
:1000F0000000A00B7828A10B762808000A30A00089
:100100000000A00B802808000930A0000000A00B10
:10011000862808007E207E20080023180514A318D6
:1001200085140800003085000800023085060800AC
:02400E00C23FAF
:00000001FF
