:020000040000FA
:10000000030183160030A600A200A300A400A500EF
:1000100085008515831205108510051105125020E5
:10002000261CA220A61CA220261DA220261EA2203D
:1000300026182120A618272026192D20261A33201D
:100040000B280030A80028142208392008000030AE
:10005000A800A8142308392008000030A80028159B
:100060002408392008000030A80028162508392067
:100070000800A700280885004020003085000800FF
:10008000B720B220B2202708A10000000000000025
:1000900000000000000000000000A10B452808003F
:1000A000851953200800AA01AB01AC018519562817
:1000B000B7205C206B2008000030AC0085192C14A0
:1000C000C3208519AC14C32085192C15C3208519AC
:1000D0002C16C32008000030AA00AB002A142A08FE
:1000E0008519AB040310AA0D03187828C3206F28C4
:1000F0002B082C18A200AC18A3002C19A4002C1A51
:10010000A5002C08A60408002708AB002B08A900AE
:100110000130AA000310A90D0318C620BD20BD2080
:10012000C9200310AA0D031896288A2886280800DB
:100130000530A100FA30A0000000A00B9C28A10B04
:100140009A2808000230A100FA30A0000000A00B9D
:10015000A628A10BA4280800B220B220B220B22009
:10016000B7200800B720B720B720B72008000A3012
:10017000A0000000A00BB92808000930A000000072
:10018000A00BBF280800B720B7200800280885006A
:080190000800003085000800A2
:02400E00C23FAF
:00000001FF
